{
  "_format": "hh-sol-artifact-1",
  "contractName": "DexitaSwap",
  "sourceName": "contracts/DexitaSwap.sol",
  "abi": [
    {
      "inputs": [],
      "stateMutability": "nonpayable",
      "type": "constructor"
    },
    {
      "anonymous": false,
      "inputs": [
        {
          "indexed": true,
          "internalType": "address",
          "name": "owner",
          "type": "address"
        },
        {
          "indexed": true,
          "internalType": "address",
          "name": "spender",
          "type": "address"
        },
        {
          "indexed": false,
          "internalType": "uint256",
          "name": "value",
          "type": "uint256"
        }
      ],
      "name": "Approval",
      "type": "event"
    },
    {
      "anonymous": false,
      "inputs": [
        {
          "indexed": true,
          "internalType": "address",
          "name": "from",
          "type": "address"
        },
        {
          "indexed": true,
          "internalType": "address",
          "name": "to",
          "type": "address"
        },
        {
          "indexed": false,
          "internalType": "uint256",
          "name": "value",
          "type": "uint256"
        }
      ],
      "name": "Transfer",
      "type": "event"
    },
    {
      "inputs": [
        {
          "internalType": "address",
          "name": "_token1",
          "type": "address"
        },
        {
          "internalType": "uint256",
          "name": "_amount1",
          "type": "uint256"
        },
        {
          "internalType": "address",
          "name": "_token2",
          "type": "address"
        },
        {
          "internalType": "uint256",
          "name": "_amount2",
          "type": "uint256"
        },
        {
          "internalType": "uint256",
          "name": "poolpairnumber",
          "type": "uint256"
        }
      ],
      "name": "AddLiquidityERC20tokens",
      "outputs": [
        {
          "internalType": "uint256",
          "name": "",
          "type": "uint256"
        }
      ],
      "stateMutability": "nonpayable",
      "type": "function"
    },
    {
      "inputs": [
        {
          "internalType": "uint256",
          "name": "_token1_reserves",
          "type": "uint256"
        },
        {
          "internalType": "uint256",
          "name": "_token2_reserves",
          "type": "uint256"
        },
        {
          "internalType": "uint256",
          "name": "_token1amount",
          "type": "uint256"
        }
      ],
      "name": "BalanceConstantProductFormula",
      "outputs": [
        {
          "internalType": "uint256",
          "name": "",
          "type": "uint256"
        }
      ],
      "stateMutability": "pure",
      "type": "function"
    },
    {
      "inputs": [
        {
          "internalType": "address",
          "name": "token1",
          "type": "address"
        },
        {
          "internalType": "address",
          "name": "token2",
          "type": "address"
        }
      ],
      "name": "CreatePairs",
      "outputs": [],
      "stateMutability": "nonpayable",
      "type": "function"
    },
    {
      "inputs": [
        {
          "internalType": "uint256",
          "name": "token1_reserves",
          "type": "uint256"
        },
        {
          "internalType": "uint256",
          "name": "amount1",
          "type": "uint256"
        },
        {
          "internalType": "uint256",
          "name": "token2_reserves",
          "type": "uint256"
        },
        {
          "internalType": "uint256",
          "name": "amount2",
          "type": "uint256"
        }
      ],
      "name": "GetMinimumAmountOfTokens_addliquidity",
      "outputs": [
        {
          "internalType": "uint256",
          "name": "",
          "type": "uint256"
        },
        {
          "internalType": "uint256",
          "name": "",
          "type": "uint256"
        }
      ],
      "stateMutability": "pure",
      "type": "function"
    },
    {
      "inputs": [
        {
          "internalType": "address",
          "name": "token1",
          "type": "address"
        },
        {
          "internalType": "address",
          "name": "token2",
          "type": "address"
        },
        {
          "internalType": "uint256",
          "name": "poolpairnumber",
          "type": "uint256"
        }
      ],
      "name": "GetMyaddedtokensinpools",
      "outputs": [
        {
          "internalType": "uint256",
          "name": "",
          "type": "uint256"
        },
        {
          "internalType": "uint256",
          "name": "",
          "type": "uint256"
        }
      ],
      "stateMutability": "view",
      "type": "function"
    },
    {
      "inputs": [
        {
          "internalType": "address",
          "name": "token1",
          "type": "address"
        },
        {
          "internalType": "address",
          "name": "token2",
          "type": "address"
        },
        {
          "internalType": "uint256",
          "name": "poolpairnumber",
          "type": "uint256"
        }
      ],
      "name": "GetMydexitalptokens",
      "outputs": [
        {
          "internalType": "uint256",
          "name": "",
          "type": "uint256"
        }
      ],
      "stateMutability": "view",
      "type": "function"
    },
    {
      "inputs": [
        {
          "internalType": "uint256",
          "name": "amountin",
          "type": "uint256"
        },
        {
          "internalType": "uint256",
          "name": "inputreserves",
          "type": "uint256"
        },
        {
          "internalType": "uint256",
          "name": "outputreserves",
          "type": "uint256"
        },
        {
          "internalType": "uint256",
          "name": "feeschoice",
          "type": "uint256"
        }
      ],
      "name": "GetOutputTokenAmount",
      "outputs": [
        {
          "internalType": "uint256",
          "name": "",
          "type": "uint256"
        }
      ],
      "stateMutability": "pure",
      "type": "function"
    },
    {
      "inputs": [
        {
          "internalType": "uint256",
          "name": "poolpair",
          "type": "uint256"
        },
        {
          "internalType": "address",
          "name": "token1",
          "type": "address"
        },
        {
          "internalType": "address",
          "name": "token2",
          "type": "address"
        }
      ],
      "name": "GetReservesPerpair",
      "outputs": [
        {
          "internalType": "uint256",
          "name": "",
          "type": "uint256"
        },
        {
          "internalType": "uint256",
          "name": "",
          "type": "uint256"
        }
      ],
      "stateMutability": "view",
      "type": "function"
    },
    {
      "inputs": [
        {
          "internalType": "address",
          "name": "_token1",
          "type": "address"
        },
        {
          "internalType": "address",
          "name": "_token2",
          "type": "address"
        }
      ],
      "name": "GetTokensReserves",
      "outputs": [
        {
          "internalType": "uint256",
          "name": "",
          "type": "uint256"
        },
        {
          "internalType": "uint256",
          "name": "",
          "type": "uint256"
        }
      ],
      "stateMutability": "view",
      "type": "function"
    },
    {
      "inputs": [
        {
          "internalType": "address",
          "name": "token1",
          "type": "address"
        },
        {
          "internalType": "address",
          "name": "token2",
          "type": "address"
        },
        {
          "internalType": "uint256",
          "name": "poolpairnumber",
          "type": "uint256"
        }
      ],
      "name": "GetTotalSupplyPerPair",
      "outputs": [
        {
          "internalType": "uint256",
          "name": "",
          "type": "uint256"
        }
      ],
      "stateMutability": "view",
      "type": "function"
    },
    {
      "inputs": [
        {
          "internalType": "address",
          "name": "token1",
          "type": "address"
        },
        {
          "internalType": "address",
          "name": "token2",
          "type": "address"
        },
        {
          "internalType": "uint256",
          "name": "lpamountpercentage",
          "type": "uint256"
        },
        {
          "internalType": "uint256",
          "name": "poolpairnumber",
          "type": "uint256"
        }
      ],
      "name": "Remove_Liquidity",
      "outputs": [
        {
          "internalType": "uint256",
          "name": "",
          "type": "uint256"
        },
        {
          "internalType": "uint256",
          "name": "",
          "type": "uint256"
        }
      ],
      "stateMutability": "nonpayable",
      "type": "function"
    },
    {
      "inputs": [
        {
          "internalType": "address",
          "name": "owner",
          "type": "address"
        },
        {
          "internalType": "address",
          "name": "spender",
          "type": "address"
        }
      ],
      "name": "allowance",
      "outputs": [
        {
          "internalType": "uint256",
          "name": "",
          "type": "uint256"
        }
      ],
      "stateMutability": "view",
      "type": "function"
    },
    {
      "inputs": [
        {
          "internalType": "address",
          "name": "spender",
          "type": "address"
        },
        {
          "internalType": "uint256",
          "name": "amount",
          "type": "uint256"
        }
      ],
      "name": "approve",
      "outputs": [
        {
          "internalType": "bool",
          "name": "",
          "type": "bool"
        }
      ],
      "stateMutability": "nonpayable",
      "type": "function"
    },
    {
      "inputs": [
        {
          "internalType": "address",
          "name": "account",
          "type": "address"
        }
      ],
      "name": "balanceOf",
      "outputs": [
        {
          "internalType": "uint256",
          "name": "",
          "type": "uint256"
        }
      ],
      "stateMutability": "view",
      "type": "function"
    },
    {
      "inputs": [],
      "name": "decimals",
      "outputs": [
        {
          "internalType": "uint8",
          "name": "",
          "type": "uint8"
        }
      ],
      "stateMutability": "view",
      "type": "function"
    },
    {
      "inputs": [
        {
          "internalType": "address",
          "name": "spender",
          "type": "address"
        },
        {
          "internalType": "uint256",
          "name": "subtractedValue",
          "type": "uint256"
        }
      ],
      "name": "decreaseAllowance",
      "outputs": [
        {
          "internalType": "bool",
          "name": "",
          "type": "bool"
        }
      ],
      "stateMutability": "nonpayable",
      "type": "function"
    },
    {
      "inputs": [
        {
          "internalType": "address",
          "name": "spender",
          "type": "address"
        },
        {
          "internalType": "uint256",
          "name": "addedValue",
          "type": "uint256"
        }
      ],
      "name": "increaseAllowance",
      "outputs": [
        {
          "internalType": "bool",
          "name": "",
          "type": "bool"
        }
      ],
      "stateMutability": "nonpayable",
      "type": "function"
    },
    {
      "inputs": [],
      "name": "name",
      "outputs": [
        {
          "internalType": "string",
          "name": "",
          "type": "string"
        }
      ],
      "stateMutability": "view",
      "type": "function"
    },
    {
      "inputs": [
        {
          "internalType": "address",
          "name": "tokenin",
          "type": "address"
        },
        {
          "internalType": "address",
          "name": "tokenout",
          "type": "address"
        },
        {
          "internalType": "uint256",
          "name": "amountin",
          "type": "uint256"
        },
        {
          "internalType": "uint256",
          "name": "feeschoice",
          "type": "uint256"
        },
        {
          "internalType": "uint256",
          "name": "poolpairnumber",
          "type": "uint256"
        }
      ],
      "name": "swaptwotokens",
      "outputs": [
        {
          "internalType": "uint256",
          "name": "",
          "type": "uint256"
        }
      ],
      "stateMutability": "nonpayable",
      "type": "function"
    },
    {
      "inputs": [],
      "name": "symbol",
      "outputs": [
        {
          "internalType": "string",
          "name": "",
          "type": "string"
        }
      ],
      "stateMutability": "view",
      "type": "function"
    },
    {
      "inputs": [],
      "name": "totalSupply",
      "outputs": [
        {
          "internalType": "uint256",
          "name": "",
          "type": "uint256"
        }
      ],
      "stateMutability": "view",
      "type": "function"
    },
    {
      "inputs": [
        {
          "internalType": "address",
          "name": "to",
          "type": "address"
        },
        {
          "internalType": "uint256",
          "name": "amount",
          "type": "uint256"
        }
      ],
      "name": "transfer",
      "outputs": [
        {
          "internalType": "bool",
          "name": "",
          "type": "bool"
        }
      ],
      "stateMutability": "nonpayable",
      "type": "function"
    },
    {
      "inputs": [
        {
          "internalType": "address",
          "name": "from",
          "type": "address"
        },
        {
          "internalType": "address",
          "name": "to",
          "type": "address"
        },
        {
          "internalType": "uint256",
          "name": "amount",
          "type": "uint256"
        }
      ],
      "name": "transferFrom",
      "outputs": [
        {
          "internalType": "bool",
          "name": "",
          "type": "bool"
        }
      ],
      "stateMutability": "nonpayable",
      "type": "function"
    }
  ],
  "bytecode": "0x60806040523480156200001157600080fd5b506040518060400160405280602081526020017f446578697461206c69717569646974792070726f766964657220746f6b656e738152506040518060400160405280600881526020016704465786974614c560c41b815250816003908051906020019062000081929190620000a0565b50805162000097906004906020840190620000a0565b50505062000183565b828054620000ae9062000146565b90600052602060002090601f016020900481019282620000d257600085556200011d565b82601f10620000ed57805160ff19168380011785556200011d565b828001600101855582156200011d579182015b828111156200011d57825182559160200191906001019062000100565b506200012b9291506200012f565b5090565b5b808211156200012b576000815560010162000130565b600181811c908216806200015b57607f821691505b602082108114156200017d57634e487b7160e01b600052602260045260246000fd5b50919050565b61208080620001936000396000f3fe608060405234801561001057600080fd5b506004361061014d5760003560e01c8063446a872b116100c3578063a9059cbb1161007c578063a9059cbb14610306578063c2c081a314610319578063d0ee9eae1461032c578063dd62ed3e1461036c578063e721185e1461037f578063f162c9791461039257600080fd5b8063446a872b146102525780636f6e28dc1461026557806370a08231146102af57806371a931f4146102d857806395d89b41146102eb578063a457c2d7146102f357600080fd5b80631fc1f5ce116101155780631fc1f5ce146101cf578063229d26ba146101f757806323b872dd1461020a5780632756b2c91461021d578063313ce56714610230578063395093511461023f57600080fd5b806306fdde0314610152578063095ea7b3146101705780630c2476c814610193578063153b9fb6146101b457806318160ddd146101c7575b600080fd5b61015a6103a7565b6040516101679190611c78565b60405180910390f35b61018361017e366004611ce9565b610439565b6040519015158152602001610167565b6101a66101a1366004611d13565b610451565b604051908152602001610167565b6101a66101c2366004611d45565b610558565b6002546101a6565b6101e26101dd366004611d93565b6109c4565b60408051928352602083019190915201610167565b6101a6610205366004611dc6565b610acc565b610183610218366004611df2565b610b05565b6101a661022b366004611e2e565b610b29565b60405160128152602001610167565b61018361024d366004611ce9565b610e05565b6101e2610260366004611e7b565b610e27565b6101e2610273366004611df2565b3360009081526006602090815260408083209383529281528282206001600160a01b039586168352905281812054929093168352909120549091565b6101a66102bd366004611eb7565b6001600160a01b031660009081526020819052604090205490565b6101e26102e6366004611d13565b610e59565b61015a610eab565b610183610301366004611ce9565b610eba565b610183610314366004611ce9565b610f35565b6101a6610327366004611df2565b610f43565b6101a661033a366004611df2565b6001600160a01b0392831660009081526007602090815260408083209490951682529283528381209181529152205490565b6101a661037a366004611d93565b610f7f565b6101e261038d366004611ed2565b610faa565b6103a56103a0366004611d93565b6114bc565b005b6060600380546103b690611f14565b80601f01602080910402602001604051908101604052809291908181526020018280546103e290611f14565b801561042f5780601f106104045761010080835404028352916020019161042f565b820191906000526020600020905b81548152906001019060200180831161041257829003601f168201915b5050505050905090565b60003361044781858561155e565b5060019392505050565b600080841180156104625750600083115b6104aa5760405162461bcd60e51b815260206004820152601460248201527344657820686173206e6f206c697175696469747960601b60448201526064015b60405180910390fd5b81600114156105045760006104c1866103e5611f65565b905060006104d1866103e8611f65565b905060006104df8387611f65565b905060006104ed8484611f84565b90506104f98183611fb2565b945050505050610550565b816002141561052b57600061051b8661270b611f65565b905060006104d186612710611f65565b8160031415610550576000610541866063611f65565b905060006104d1866064611f65565b949350505050565b600061056486856114bc565b600080610572848988610e27565b9150915060008060008460001480610588575083155b156106b2576040516323b872dd60e01b81528a93508892506001600160a01b038c16906323b872dd906105c390339030908890600401611fd4565b602060405180830381600087803b1580156105dd57600080fd5b505af11580156105f1573d6000803e3d6000fd5b505050506040513d601f19601f820116820180604052508101906106159190611ff8565b506040516323b872dd60e01b81526001600160a01b038a16906323b872dd9061064690339030908d90600401611fd4565b602060405180830381600087803b15801561066057600080fd5b505af1158015610674573d6000803e3d6000fd5b505050506040513d601f19601f820116820180604052508101906106989190611ff8565b506106ab6106a68b8a611683565b611696565b905061082d565b6001600160a01b038b81166000908152600760209081526040808320938d1683529281528282208a8352905220546106ec868c878c610e59565b6040516323b872dd60e01b815291955093506001600160a01b038d16906323b872dd9061072190339030908990600401611fd4565b602060405180830381600087803b15801561073b57600080fd5b505af115801561074f573d6000803e3d6000fd5b505050506040513d601f19601f820116820180604052508101906107739190611ff8565b506040516323b872dd60e01b81526001600160a01b038b16906323b872dd906107a490339030908890600401611fd4565b602060405180830381600087803b1580156107be57600080fd5b505af11580156107d2573d6000803e3d6000fd5b505050506040513d601f19601f820116820180604052508101906107f69190611ff8565b50610829866108058684611683565b61080f9190611fb2565b8661081a8685611683565b6108249190611fb2565b6117f5565b9150505b610837338261180b565b6001600160a01b03808c166000908152600760209081526040808320938d1683529281528282208a835290529081208054839290610876908490611f84565b90915550503360009081526005602090815260408083208a845282528083206001600160a01b038f81168552908352818420908d168452909152812080548392906108c2908490611f84565b909155505060008781526008602090815260408083206001600160a01b038f168452909152812080548592906108f9908490611f84565b909155505060008781526008602090815260408083206001600160a01b038d16845290915281208054849290610930908490611f84565b90915550503360009081526006602090815260408083208a845282528083206001600160a01b038f16845290915281208054859290610970908490611f84565b90915550503360009081526006602090815260408083208a845282528083206001600160a01b038d168452909152812080548492906109b0908490611f84565b90915550959b9a5050505050505050505050565b6040516370a0823160e01b8152306004820152600090819081906001600160a01b038616906370a082319060240160206040518083038186803b158015610a0a57600080fd5b505afa158015610a1e573d6000803e3d6000fd5b505050506040513d601f19601f82011682018060405250810190610a42919061201a565b6040516370a0823160e01b81523060048201529091506000906001600160a01b038616906370a082319060240160206040518083038186803b158015610a8757600080fd5b505afa158015610a9b573d6000803e3d6000fd5b505050506040513d601f19601f82011682018060405250810190610abf919061201a565b9196919550909350505050565b600080610adb61271084611fb2565b84610ae887612710611f65565b610af29190611fb2565b610afc9190611f65565b95945050505050565b600033610b138582856118ea565b610b1e858585611964565b506001949350505050565b6000846001600160a01b0316866001600160a01b03161415610b8d5760405162461bcd60e51b815260206004820152601a60248201527f73616d6520746f6b656e732c206572726f7220696e207377617000000000000060448201526064016104a1565b6040516370a0823160e01b815233600482015284906001600160a01b038816906370a082319060240160206040518083038186803b158015610bce57600080fd5b505afa158015610be2573d6000803e3d6000fd5b505050506040513d601f19601f82011682018060405250810190610c06919061201a565b1015610c635760405162461bcd60e51b815260206004820152602660248201527f796f7520646f206e6f74206861766520746865736520616d6f756e74206f6620604482015265746f6b656e7360d01b60648201526084016104a1565b600080610c71848989610e27565b915091506000610c8387848489610451565b6040516323b872dd60e01b81529091506001600160a01b038a16906323b872dd90610cb690339030908c90600401611fd4565b602060405180830381600087803b158015610cd057600080fd5b505af1158015610ce4573d6000803e3d6000fd5b505050506040513d601f19601f82011682018060405250810190610d089190611ff8565b5060405163a9059cbb60e01b8152336004820152602481018290526001600160a01b0389169063a9059cbb90604401602060405180830381600087803b158015610d5157600080fd5b505af1158015610d65573d6000803e3d6000fd5b505050506040513d601f19601f82011682018060405250810190610d899190611ff8565b5060008581526008602090815260408083206001600160a01b038d16845290915281208054899290610dbc908490611f84565b909155505060008581526008602090815260408083206001600160a01b038c16845290915281208054839290610df3908490612033565b90915550909998505050505050505050565b600033610447818585610e188383610f7f565b610e229190611f84565b61155e565b60009283526008602090815260408085206001600160a01b039485168652909152808420549190921683529120549091565b6000806000610e69878686610acc565b90506000610e78868989610acc565b9050818710610e8c57509150829050610ea2565b808510610e9f578693509150610ea29050565b50505b94509492505050565b6060600480546103b690611f14565b60003381610ec88286610f7f565b905083811015610f285760405162461bcd60e51b815260206004820152602560248201527f45524332303a2064656372656173656420616c6c6f77616e63652062656c6f77604482015264207a65726f60d81b60648201526084016104a1565b610b1e828686840361155e565b600033610447818585611964565b3360009081526005602090815260408083209383529281528282206001600160a01b039586168352815282822093909416815291909252205490565b6001600160a01b03918216600090815260016020908152604080832093909416825291909152205490565b6000806000610fba878786610f43565b905060006064610fca8784611f65565b610fd49190611fb2565b90508082101561103d5760405162461bcd60e51b815260206004820152602e60248201527f796f7520646f206e6f74206f776e207468617420616d6f756e74206f66206c6960448201526d7175696469747920746f6b656e7360901b60648201526084016104a1565b856019148061104c5750856032145b80611057575085604b145b806110625750856064145b6110ae5760405162461bcd60e51b815260206004820152601960248201527f696e76616c69642070657263656e74616765206e756d6265720000000000000060448201526064016104a1565b6000806110bc878b8b610e27565b6001600160a01b03808d166000908152600760209081526040808320938f1683529281528282208c8352905290812054929450909250816110fd8587611f65565b6111079190611fb2565b90506000826111168588611f65565b6111209190611fb2565b60405163a9059cbb60e01b8152336004820152602481018490529091506001600160a01b038e169063a9059cbb90604401602060405180830381600087803b15801561116b57600080fd5b505af115801561117f573d6000803e3d6000fd5b505050506040513d601f19601f820116820180604052508101906111a39190611ff8565b5060405163a9059cbb60e01b8152336004820152602481018290526001600160a01b038d169063a9059cbb90604401602060405180830381600087803b1580156111ec57600080fd5b505af1158015611200573d6000803e3d6000fd5b505050506040513d601f19601f820116820180604052508101906112249190611ff8565b5061122f3387611b32565b85600760008f6001600160a01b03166001600160a01b0316815260200190815260200160002060008e6001600160a01b03166001600160a01b0316815260200190815260200160002060008c815260200190815260200160002060008282546112989190612033565b925050819055508560056000336001600160a01b03166001600160a01b0316815260200190815260200160002060008c815260200190815260200160002060008f6001600160a01b03166001600160a01b0316815260200190815260200160002060008e6001600160a01b03166001600160a01b03168152602001908152602001600020600082825461132b9190612033565b9250508190555081600860008c815260200190815260200160002060008f6001600160a01b03166001600160a01b0316815260200190815260200160002060008282546113789190612033565b9250508190555080600860008c815260200190815260200160002060008e6001600160a01b03166001600160a01b0316815260200190815260200160002060008282546113c59190612033565b925050819055508160066000336001600160a01b03166001600160a01b0316815260200190815260200160002060008c815260200190815260200160002060008f6001600160a01b03166001600160a01b0316815260200190815260200160002060008282546114359190612033565b925050819055508060066000336001600160a01b03166001600160a01b0316815260200190815260200160002060008c815260200190815260200160002060008e6001600160a01b03166001600160a01b0316815260200190815260200160002060008282546114a59190612033565b90915550919d909c509a5050505050505050505050565b604080518082019091526001600160a01b03928316815290821660208201908152600a8054600181018255600091909152915160029092027fc65a7bb8d6351c1cf70c95a316cc6a92839c986682d98bc35f958f4883f9d2a8810180549385166001600160a01b031994851617905590517fc65a7bb8d6351c1cf70c95a316cc6a92839c986682d98bc35f958f4883f9d2a99091018054919093169116179055565b6001600160a01b0383166115c05760405162461bcd60e51b8152602060048201526024808201527f45524332303a20617070726f76652066726f6d20746865207a65726f206164646044820152637265737360e01b60648201526084016104a1565b6001600160a01b0382166116215760405162461bcd60e51b815260206004820152602260248201527f45524332303a20617070726f766520746f20746865207a65726f206164647265604482015261737360f01b60648201526084016104a1565b6001600160a01b0383811660008181526001602090815260408083209487168084529482529182902085905590518481527f8c5be1e5ebec7d5bd14f71427d1e84f3dd0314c0f7b2291e5b200ac8c7c3b92591015b60405180910390a3505050565b600061168f8284611f65565b9392505050565b6000816116a557506000919050565b600182608081901c156116bd5760409190911b9060801c5b604081901c156116d25760209190911b9060401c5b602081901c156116e75760109190911b9060201c5b601081901c156116fc5760089190911b9060101c5b600881901c156117115760049190911b9060081c5b600481901c156117265760029190911b9060041c5b600281901c1561173857600182901b91505b600182858161174957611749611f9c565b048301901c9150600182858161176157611761611f9c565b048301901c9150600182858161177957611779611f9c565b048301901c9150600182858161179157611791611f9c565b048301901c915060018285816117a9576117a9611f9c565b048301901c915060018285816117c1576117c1611f9c565b048301901c915060018285816117d9576117d9611f9c565b048301901c9150610550828386816117f3576117f3611f9c565b045b6000818310611804578161168f565b5090919050565b6001600160a01b0382166118615760405162461bcd60e51b815260206004820152601f60248201527f45524332303a206d696e7420746f20746865207a65726f20616464726573730060448201526064016104a1565b80600260008282546118739190611f84565b90915550506001600160a01b038216600090815260208190526040812080548392906118a0908490611f84565b90915550506040518181526001600160a01b038316906000907fddf252ad1be2c89b69c2b068fc378daa952ba7f163c4a11628f55a4df523b3ef9060200160405180910390a35050565b60006118f68484610f7f565b9050600019811461195e57818110156119515760405162461bcd60e51b815260206004820152601d60248201527f45524332303a20696e73756666696369656e7420616c6c6f77616e636500000060448201526064016104a1565b61195e848484840361155e565b50505050565b6001600160a01b0383166119c85760405162461bcd60e51b815260206004820152602560248201527f45524332303a207472616e736665722066726f6d20746865207a65726f206164604482015264647265737360d81b60648201526084016104a1565b6001600160a01b038216611a2a5760405162461bcd60e51b815260206004820152602360248201527f45524332303a207472616e7366657220746f20746865207a65726f206164647260448201526265737360e81b60648201526084016104a1565b6001600160a01b03831660009081526020819052604090205481811015611aa25760405162461bcd60e51b815260206004820152602660248201527f45524332303a207472616e7366657220616d6f756e7420657863656564732062604482015265616c616e636560d01b60648201526084016104a1565b6001600160a01b03808516600090815260208190526040808220858503905591851681529081208054849290611ad9908490611f84565b92505081905550826001600160a01b0316846001600160a01b03167fddf252ad1be2c89b69c2b068fc378daa952ba7f163c4a11628f55a4df523b3ef84604051611b2591815260200190565b60405180910390a361195e565b6001600160a01b038216611b925760405162461bcd60e51b815260206004820152602160248201527f45524332303a206275726e2066726f6d20746865207a65726f206164647265736044820152607360f81b60648201526084016104a1565b6001600160a01b03821660009081526020819052604090205481811015611c065760405162461bcd60e51b815260206004820152602260248201527f45524332303a206275726e20616d6f756e7420657863656564732062616c616e604482015261636560f01b60648201526084016104a1565b6001600160a01b0383166000908152602081905260408120838303905560028054849290611c35908490612033565b90915550506040518281526000906001600160a01b038516907fddf252ad1be2c89b69c2b068fc378daa952ba7f163c4a11628f55a4df523b3ef90602001611676565b600060208083528351808285015260005b81811015611ca557858101830151858201604001528201611c89565b81811115611cb7576000604083870101525b50601f01601f1916929092016040019392505050565b80356001600160a01b0381168114611ce457600080fd5b919050565b60008060408385031215611cfc57600080fd5b611d0583611ccd565b946020939093013593505050565b60008060008060808587031215611d2957600080fd5b5050823594602084013594506040840135936060013592509050565b600080600080600060a08688031215611d5d57600080fd5b611d6686611ccd565b945060208601359350611d7b60408701611ccd565b94979396509394606081013594506080013592915050565b60008060408385031215611da657600080fd5b611daf83611ccd565b9150611dbd60208401611ccd565b90509250929050565b600080600060608486031215611ddb57600080fd5b505081359360208301359350604090920135919050565b600080600060608486031215611e0757600080fd5b611e1084611ccd565b9250611e1e60208501611ccd565b9150604084013590509250925092565b600080600080600060a08688031215611e4657600080fd5b611e4f86611ccd565b9450611e5d60208701611ccd565b94979496505050506040830135926060810135926080909101359150565b600080600060608486031215611e9057600080fd5b83359250611ea060208501611ccd565b9150611eae60408501611ccd565b90509250925092565b600060208284031215611ec957600080fd5b61168f82611ccd565b60008060008060808587031215611ee857600080fd5b611ef185611ccd565b9350611eff60208601611ccd565b93969395505050506040820135916060013590565b600181811c90821680611f2857607f821691505b60208210811415611f4957634e487b7160e01b600052602260045260246000fd5b50919050565b634e487b7160e01b600052601160045260246000fd5b6000816000190483118215151615611f7f57611f7f611f4f565b500290565b60008219821115611f9757611f97611f4f565b500190565b634e487b7160e01b600052601260045260246000fd5b600082611fcf57634e487b7160e01b600052601260045260246000fd5b500490565b6001600160a01b039384168152919092166020820152604081019190915260600190565b60006020828403121561200a57600080fd5b8151801515811461168f57600080fd5b60006020828403121561202c57600080fd5b5051919050565b60008282101561204557612045611f4f565b50039056fea2646970667358221220a2327064b8f150f4e713f676dee7d43a2c9eee3ca0a8a6dd41790820bc4306c864736f6c63430008090033",
  "linkReferences": {},
  "deployedLinkReferences": {}
}